SEPAZAHLUNG2X066500000000A00001A31            PBNKDEFF250PBNKDEFF25091PANR66500000000A00001              00000600001PBNKDEFFXXXPeter Postbank                     DE07100100100013361109            20220630                                                                                                          PB HBV Zahlung 0600001                                                                                                                      
SEPAZAHLUNG2X066500000000A00002A31            PBNKDEFF250PBNKDEFF25091PANR66500000000A00002              00000600002PBNKDEFFXXXPeter Postbank                     DE12100100100000137106            20220630                                                                                                          PB HBV Zahlung 0600002                                                                                                                      
SEPAZAHLUNG2X066500000000A00001A31            PBNKDEFF250PBNKDEFF25091PANR66500000000A00003              00000600001PBNKDEFFXXXPeter Postbank                     DE07100100100013361109            20220630                                                                                                          PB HBV Zahlung 0600003                                                                                                                      
SEPAZAHLUNG2X066500000000A00001A31            PBNKDEFF250PBNKDEFF25091PANR66500000000A00004              00000600001PBNKDEFFXXXPeter Postbank                     DE07100100100013361109            20220630                                                                                                          PB HBV Zahlung 0600004                                                                                                                      
SEPAZAHLUNG2X066500000000A00001A31            PBNKDEFF250PBNKDEFF25091PANR66500000000A00005              00000600001PBNKDEFFXXXPeter Postbank                     DE07100100100013361109            20220630                                                                                                          PB HBV Zahlung 0600005                                                                                                                                                                                                                                                                                                                                       
SEPAZAHLUNG2X066500000000A00001A31            PBNKDEFF250PBNKDEFF25091PANR66500000000A00005              00000600001PBNKDEFFXXXPeter Postbank                     DE07100100100013361109            20220630                                                                                                          PB HBV Zahlung 0600006                                                                                                                      